:03000000021A6A77
:0C1A6A00787FE4F6D8FD758121021AB1E6
:101B620025302E3266002B006900000000000000C4
:101B72000000000000000000000000000000000063
:101B82000000000000000000000000000000000053
:101B92000000000000000000000000000000000043
:101BA2000000000000000000000000000000000033
:0A1BB2000000000000000000000029
:101C0B009013000000000000000000000000000026
:101C1B000000822500008223000093003031323314
:0F1C2B00343536373839282E2B2D2A2F296900CA
:0F1C3B008F807F057E00121C4AD2B47F057E0089
:101C4A00D3EF9400EE6480948040147D6E7C00EDA6
:0F1C5A001D70011CED4C70F7EF1F70E41E80E150
:011C69002258
:081CD700C2B5121C3BC2B4228D
:081CDF00D2B5121C3BC2B42275
:101C9100C2A6C2A7C2B47F38121CD77F0C121CD7B0
:0A1CA1007F06121CD77F01021CD73A
:10169D0078851210CA7895E224D6700302175B2460
:1016AD00FD605724FE70030218092404600302191B
:1016BD0074788DE2FC08E2FD08E2FE08E2FF788511
:1016CD00E2FB08E2F908E2FA08E2CBF81209F07839
:1016DD0096E2FB08E2FA08E2F912108C7891E2FC2E
:1016ED0008E2FD08E2FE08E2FF7889E2FB08E2F974
:1016FD0008E2FA08E2CBF8021803788DE2FB08E263
:10170D00F908E2FA08E2CBF8C0007885E2FC08E2BD
:10171D00FD08E2FE08E2FFD0001209EC7896E2FB2C
:10172D0008E2FA08E2F912108C7891E2FB08E2F96E
:10173D0008E2FA08E2CBF8C0007889E2FC08E2FD85
:10174D0008E2FE08E2FFD0001209EC02196478915C
:10175D00E2FC08E2FD08E2FE08E2FF7889E2FB0800
:10176D00E2F908E2FA08E2CBF8120AE1C004C0057A
:10177D00C006C007788DE2FC08E2FD08E2FE08E233
:10178D00FF7885E2FB08E2F908E2FA08E2CBF812ED
:10179D000AE1D003D002D001D0001209EC7896E214
:1017AD00FB08E2FA08E2F912108C7891E2FC08E2EB
:1017BD00FD08E2FE08E2FF7885E2FB08E2F908E2A7
:1017CD00FA08E2CBF8120AE1C004C005C006C00752
:1017DD00788DE2FC08E2FD08E2FE08E2FF7889E27E
:1017ED00FB08E2F908E2FA08E2CBF8120AE1D003AD
:1017FD00D002D001D0001209F00219647891E2FCF8
:10180D0008E2FD08E2FE08E2FFA804A905AA06FB0E
:10181D00120AE1C004C005C006C007788DE2FC08BD
:10182D00E2FD08E2FE08E2FFA804A905AA06FB12E4
:10183D000AE1D003D002D001D0001209F0C004C0DB
:10184D0005C006C0077891E2FC08E2FD08E2FE083B
:10185D00E2FF7889E2FB08E2F908E2FA08E2CBF848
:10186D00120AE1C004C005C006C007788DE2FC086D
:10187D00E2FD08E2FE08E2FF7885E2FB08E2F908E6
:10188D00E2FA08E2CBF8120AE1A804A905AA06AB10
:10189D0007D007D006D005D0041209F0D003D0022E
:1018AD00D001D000120BEA7896E2FB08E2FA08E2CA
:1018BD00F912108C7891E2FC08E2FD08E2FE08E2D4
:1018CD00FFA804A905AA06FB120AE1C004C005C0C1
:1018DD0006C007788DE2FC08E2FD08E2FE08E2FF93
:1018ED00A804A905AA06FB120AE1D003D002D00173
:1018FD00D0001209F0C004C005C006C0077891E2FF
:10190D00FC08E2FD08E2FE08E2FF7885E2FB08E252
:10191D00F908E2FA08E2CBF8120AE1C004C005C0EA
:10192D0006C007788DE2FC08E2FD08E2FE08E2FF42
:10193D007889E2FB08E2F908E2FA08E2CBF8120A2C
:10194D00E1D003D002D001D0001209ECD003D002B7
:10195D00D001D000120BEA7896E2FB08E2FA08E219
:08196D00F99000041210A622FB
:10000300E47827F208F27825E2FF08E27829CFF2B4
:1000130008EFF208E4F20804F274FF08F208F208A9
:10002300F208F2081210D60000000078357C007D3B
:10003300FE7BFF7A1B796C7E007F08120FEE783D02
:100043007C007DFE7BFF7A1B79747E007F20120F7C
:10005300EE785D7C007DFE7BFF7A1B79947E007FCA
:1000630020120FEE787D7C007DFE7BFF7A1B79B436
:100073007E007F08120FEEE47827F208F27829E277
:10008300FE08E2FF7827E2FC08E2FDC39FEE6480EE
:10009300F8EC648098400302080574132DF8E224F9
:1000A300D760371470030205041470030201E424BB
:1000B300FE70030202F924FE700302051A2407608E
:1000C300030206267830E22401F218E23400F20833
:1000D300E2247DF87428F20207F7782FE2FE08E2A3
:1000E300FFF47002EEF470030201D6747D2FF8E280
:1000F300642870030201D6782D08E225E025E02468
:1001030039F8E2FC08E2FD08E2FE08E2FFC004C0A1
:1001130005C006C007782D08E2FB25E025E0245939
:10012300F8E2FC08E2FD08E2FE08E2FF788912101B
:10013300CAEB25E025E0243DF8E2FC08E2FD08E2F5
:10014300FE08E2FF788D1210CA782D08E225E0251B
:10015300E0245DF8E2FC08E2FD08E2FE08E2FF7835
:10016300911210CA782F08E2247DF8E27895F208FC
:1001730074FEF2087400F2087435F2D007D006D08A
:1001830005D00412169D7835E2FC08E2FD08E2FE74
:1001930008E2FF782D08E2FB25E025E02439F81278
:1001A30010CA7839E2FC08E2FD08E2FE08E2FFEB40
:1001B30025E025E02459F81210CA782EE224FFF234
:1001C30018E234FFF27830E224FFF218E234FFF24F
:1001D3000200DD7830E224FFF218E234FFF2020776
:1001E300F7782FE2FE08E2FFF47002EEF4700302E8
:1001F30002E3747D2FF8E2FF642A6008EF642F6046
:10020300030202E3782D08E225E025E02439F8E231
:10021300FC08E2FD08E2FE08E2FFC004C005C006D8
:10022300C007782D08E2FB25E025E02459F8E2FC1D
:1002330008E2FD08E2FE08E2FF78891210CAEB2506
:10024300E025E0243DF8E2FC08E2FD08E2FE08E2D6
:10025300FF788D1210CA782D08E225E025E0245D91
:10026300F8E2FC08E2FD08E2FE08E2FF78911210D2
:10027300CA782F08E2247DF8E27895F20874FEF23A
:10028300087400F2087435F2D007D006D005D00404
:1002930012169D7835E2FC08E2FD08E2FE08E2FF53
:1002A300782D08E2FB25E025E02439F81210CA78FE
:1002B30039E2FC08E2FD08E2FE08E2FFEB25E02557
:1002C300E02459F81210CA782EE224FFF218E2341F
:1002D300FFF27830E224FFF218E234FFF20201E485
:1002E3007830E22401F218E23400F208E2247DF8C7
:1002F300742BF20207F7782FE2FE08E2FFF4700294
:10030300EEF470030203F8747D2FF8E2FF642A60B1
:1003130008EF642F60030203F8782D08E225E02537
:10032300E02439F8E2FC08E2FD08E2FE08E2FFC03F
:1003330004C005C006C007782D08E2FB25E025E0D0
:100343002459F8E2FC08E2FD08E2FE08E2FF78899E
:100353001210CAEB25E025E0243DF8E2FC08E2FD9B
:1003630008E2FE08E2FF788D1210CA782D08E22514
:10037300E025E0245DF8E2FC08E2FD08E2FE08E285
:10038300FF78911210CA782F08E2247DF8E278955D
:10039300F20874FEF2087400F2087435F2D007D044
:1003A30006D005D00412169D7835E2FC08E2FD085C
:1003B300E2FE08E2FF782D08E2FB25E025E0243980
:1003C300F81210CA7839E2FC08E2FD08E2FE08E2FE
:1003D300FFEB25E025E02459F81210CA782EE22419
:1003E300FFF218E234FFF27830E224FFF218E2342D
:1003F300FFF20202F9782FE2FE08E2FFF47002EE48
:10040300F470030204EE747D2FF8E2642D6003029E
:1004130004EE782D08E225E025E02439F8E2FC0813
:10042300E2FD08E2FE08E2FFC004C005C006C00703
:10043300782D08E2FB25E025E02459F8E2FC08E2E8
:10044300FD08E2FE08E2FF78891210CAEB25E025D9
:10045300E0243DF8E2FC08E2FD08E2FE08E2FF7852
:100463008D1210CA782D08E225E025E0245DF8E21C
:10047300FC08E2FD08E2FE08E2FF78911210CA7858
:100483002F08E2247DF8E27895F20874FEF20874EE
:1004930000F2087435F2D007D006D005D004121646
:1004A3009D7835E2FC08E2FD08E2FE08E2FF782DC4
:1004B30008E2FB25E025E02439F81210CA7839E276
:1004C300FC08E2FD08E2FE08E2FFEB25E025E0245C
:1004D30059F81210CA782EE224FFF218E234FFF220
:1004E3007830E224FFF218E234FFF27830E224019C
:1004F300F218E23400F208E2247DF8742DF20207C8
:10050300F77830E22401F218E23400F208E2247DA5
:10051300F8742AF20207F7782FE2FE08E2FFF4707C
:1005230002EEF47003020610747D2FF8E2642F606C
:1005330003020610782D08E225E025E02439F8E2CD
:10054300FC08E2FD08E2FE08E2FFC004C005C006A5
:10055300C007782D08E2FB25E025E02459F8E2FCEA
:1005630008E2FD08E2FE08E2FF78891210CAEB25D3
:10057300E025E0243DF8E2FC08E2FD08E2FE08E2A3
:10058300FF788D1210CA782D08E225E025E0245D5E
:10059300F8E2FC08E2FD08E2FE08E2FF789112109F
:1005A300CA782F08E2247DF8E27895F20874FEF207
:1005B300087400F2087435F2D007D006D005D004D1
:1005C30012169D7835E2FC08E2FD08E2FE08E2FF20
:1005D300782D08E2FB25E025E02439F81210CA78CB
:1005E30039E2FC08E2FD08E2FE08E2FFEB25E02524
:1005F300E02459F81210CA782EE224FFF218E234EC
:10060300FFF27830E224FFF218E234FFF27830E2AE
:100613002401F218E23400F208E2247DF8742FF288
:100623000207F77829E2FE08E2FF7827E2FC08E2F6
:10063300FDC39FEE6480F8EC648098400302075288
:1006430074132DF8E2FFC3648094B05003020731A2
:10065300D3EF648094B94003020731782CE264013C
:10066300700218E2704C782708E22413F8E2FF3393
:1006730095E0FEEF24D0FDEE34FFFCE4120CF9C04C
:1006830004C005C006C007E4FFFE7D207C4178312D
:10069300E2FB08E2F908E2FA08E2CBF8120AE1D039
:1006A30003D002D001D0001209F078311210CA022F
:1006B30007447831E2FB08E2F908E2FA08E2CBF8F2
:1006C300C000C001C002C003782708E22413F8E287
:1006D300FF3395E0FEEF24D0FDEE34FFFCE4120C73
:1006E300F9C004C005C006C007782BE2FC08E2FD90
:1006F300EC120CF9A804A905AA06AB07D007D0068B
:10070300D005D004120BEAD003D002D001D00012DE
:1007130009F078311210CA782BE2FE08E2FF7C0060
:100723007D0A12106C782BEEF208EFF28013782713
:1007330008E22413F8E2B42E16782BE4F208740AC4
:10074300F27828E22401F218E23400F20206267855
:1007530029E2FE08E2FF7827E2FC08E2FD6F70025F
:10076300EC6E600974132DF8E264696043782EE23D
:100773002401F218E23400F27831E2FC08E2FD08C9
:10078300E2FE08E2FF782D08E2FB25E025E0243DA8
:10079300F81210CAEB25E025E0245DF81210D6000C
:1007A3000000007828E224FFF218E234FFF28034DC
:1007B300782EE22401F218E23400F208E2FB25E08D
:1007C30025E0243DF81210D6000000007831E2FC49
:1007D30008E2FD08E2FE08E2FFEB25E025E0245DE8
:1007E300F81210CA782BE4F20804F278311210D60A
:1007F300000000007828E22401F218E23400F2023B
:1008030000807830E2F4700318E2F470030208EF1A
:10081300782D08E225E025E02439F8E2FC08E2FD22
:1008230008E2FE08E2FFC004C005C006C007782D39
:1008330008E2FB25E025E02459F8E2FC08E2FD0884
:10084300E2FE08E2FF78891210CAEB25E025E024D6
:100853003DF8E2FC08E2FD08E2FE08E2FF788D12B3
:1008630010CA782D08E225E025E0245DF8E2FC08B3
:10087300E2FD08E2FE08E2FF78911210CA782F0821
:10088300E2247DF8E27895F20874FEF2087400F22F
:10089300087435F2D007D006D005D00412169D781F
:1008A30035E2FC08E2FD08E2FE08E2FF782D08E2EB
:1008B300FB25E025E02439F81210CA7839E2FC0858
:1008C300E2FD08E2FE08E2FFEB25E025E02459F80B
:1008D3001210CA782EE224FFF218E234FFF27830C5
:1008E300E224FFF218E234FFF2020805788874FF6D
:1008F300F208741BF2087462F2783DE2FC08E2FD30
:1009030008E2FE08E2FF788B1210CA7BFE7A0079B8
:100913007D12128B78137C007DFE7BFE7A00797D3D
:100923001211FAE4FFFEFDFC785DE2FB08E2F90830
:10093300E2FA08E2CBF8120C874016788874FFF2CB
:1009430008741BF2087468F27BFE7A007913121A9A
:10095300F6788874FFF208741BF2087462F2785D0B
:10096300E2FC08E2FD08E2FE08E2FF788B1210CAFF
:100973007BFE7A00797D12128B788874FEF20874FC
:1009830000F208747DF27BFE7A007913121AF6786E
:100993008874FFF208741BF208746AF27BFE7A0013
:1009A3007913121AF67FC0121CD7E47827F208F2E3
:1009B3007BFE7A007913121CC27827E2FC08E2FD61
:1009C300C39FEE6480F8EC648098501974132DF87B
:1009D300E2FF121CDF121C467828E22401F218E21F
:0509E3003400F280CB9E
:0109E80022EC
:1019750075B0F07827E5B0F27580FEE264F070038B
:10198500021A667F0A7E00121C4AE5B0F2E264F094
:101995007003021A66E5B0F2E22490602724C06065
:1019A5001924E0600C24F07023E4782AF208F28010
:1019B5001B782AE4F20804F28012782AE4F208740B
:1019C50002F28008782AE4F2087403F275B00F7801
:1019D50027E5B0F2E224F9602624FC601824FE60B5
:1019E5000B147023E47828F208F2801B7828E4F2BF
:1019F5000804F280127828E4F2087402F28008786C
:101A050028E4F2087403F27827E2640F6005E5B074
:101A1500F280F4782A08E2FF782808E225E025E03C
:101A25002FF8C000782308E2D00075F006A428241A
:101A350000F8E2FF782508E2FE2413F8EFF2E478D7
:101A450023F208F2EE2480FF121CD70808E22413C3
:101A5500F8E2FF121CDF7826E22401F218E23400D6
:041A6500F275B0FF67
:011A6900225A
:101BBC007580FE20B6147F0A7E00121C4A20B60ADD
:101BCC007823E4F20804F230B6FD20B7317F0A7EA8
:101BDC0000121C4A20B7277824E2700218E2601821
:101BEC00121C917F80121CD7E47813F27825F2082E
:0F1BFC00F27823F208F2800312000330B7FD22C3
:101CAB00121C917F80121CD71219757F0A7E0012AD
:071CBB001C4A121BBC80F162
:1009E900020D67E86480F8E933E83360110460F0C8
:1009F900ED33EC337009E8FCE9FDEAFEEBFF220474
:100A090060DED3EB9FEA9EE99DE8C2E78CF0C2F76E
:100A190095F0400CE8CCF8E9CDF9EACEFAEBCFFB3A
:100A2900120D3285D0F05804700320D5B3E8047054
:100A3900075002B2D5020D7192D5EC0460F7E4CCEF
:100A4900C0E0C398F8603B94186008400DD0E0FB03
:100A5900020D49E4FBFAC9FC8028E830E406E4C940
:100A6900FBE4CAFCE830E305E4C9CACBFCE8540757
:100A79006010F8C3E913F9EA13FAEB13FBEC13FC62
:100A8900D8F130F52FC3E49CFCEF9BFFEE9AFEED05
:100A990099FDD0E0FBEF4E4D4C701222DB03020DA5
:100AA9006EEC2CFCEF33FFEE33FEED33FDED30E75A
:100AB900EB020D49EF2BFFEE3AFEED39FDD0E0FBDD
:100AC90050130BBB0003020D71ED13FDEE13FEEF86
:080AD90013FFEC13FC020D49B0
:100AE100EC4D6011E8497017ED33EC3304600DE40F
:100AF100FCFFFEFD22E933E8330470F8020D6712B2
:100B01000D3258046009E4CC2481500628500902B2
:100B11000D71284003020D6EC0E0EB4A7044B980AC
:100B210006D0E0FB020D5DEF4E701CBD8008EBFFAF
:100B3100EAFEE9FD80EBE98DF0A4FEE5F0020BCAC7
:100B4100E9CDF9EAFEEBFFEF89F0A4FCE5F0CE89EF
:100B5100F0A42EFFE435F0CD89F0A42DFEE435F0AC
:100B61008067EF4E7005BD80D780C3EF8BF0A4ACDA
:100B7100F0EE8BF0A42CFCE435F0F8EF8AF0A42C15
:100B8100E5F038FCE433CB8DF0A42CFCE5F03BF828
:100B9100EE8AF0A42CFCE5F038F8E433CF89F0A418
:100BA1002CFCE5F038CF3400CE89F0A42FFFE5F01E
:100BB1003EFEE433C98DF0A42EFEE5F039CD8AF076
:100BC100A42FFFE5F03EFEE43DFD33D0E0FB5007EE
:100BD1000BBB000F020D71EC2CFCEF33FFEE33FE6B
:060BE100ED33FD020D4999
:100BE700020D71EC5D046005E859047003020D679E
:100BF700120D32580460F6EC4860F2EC7004FDFE0A
:100C0700FF22C860DB2481C85009C39860025006E0
:100C1700020D6E9850CAF582E9294B4A7005AB82DE
:100C2700020D5D75F0007C1A7880C3EF9BEE9AED9C
:100C370099400DC3EF9BFFEE9AFEED99FDE842F058
:100C4700DC23ACF0D0E0FFD0E0FED0E0FDAB8220AB
:100C5700E7101BEB60BAEC2CFCEF33FFEE33FEED35
:100C670033FD020D49E803F830E705C0F075F000E1
:100C7700EF2FFFEE33FEED33FD40B830E7C280AA19
:100C870074F8CC6480CCC86480C8F582046043C320
:100C9700EB9FF5F0EA9E42F0E99D42F0E89C45F0B3
:100CA70060305018E5825FFFE582F42B5582FB50D8
:100CB700210ABA001D09B90019088016E5825BFBF5
:100CC700E582F42F5582FF50090EBE00050DBD00C9
:100CD700010CC3EB9FF5F0EA9E42F0E99D42F0E874
:0D0CE7009C45F06007CC4820E701B3EC22EB
:100CF40075F020800E75F010800575F0087D007E7B
:100D0400007F003392D530D50312107EEC334010AF
:100D1400EF33FFEE33FEED33FDEC33FCD5F0ED2283
:0E0D2400E5F0247EA2D513CC92E7CDCEFF22BF
:10122F00E5082488F8E205082278853007027888D7
:10123F00E475F0011210EF0210142000EB7F2ED294
:10124F00008018EF540F2490D43440D4FF30040B97
:10125F00EF24BFB41A0050032461FFE509600215A3
:10126F0009050CE50C7002050B30070D7885E47548
:10127F00F0011210EFEF02105A021C6A7403D2072A
:10128F008003E4C207F50878851210FFE4F509F52D
:10129F000BF50CE50960077F2012126A80F5750ABD
:1012AF00FFC201C200C202C203C205C206C20812B7
:1012BF001238FF700D3007057F0012127BAF0CAE96
:1012CF000B22B4255FC2D5C204121238FF24D0B44A
:1012DF000A00501A75F00A780930D50508B6FF01D3
:1012EF0006C6A426F620D5047002D20380D924CFD7
:1012FF00B41A00EF5004C2E5D204021567D2018080
:10130F00C6D20080C0D20280BCD2D580BAD20580AE
:10131F00B47F2012126A2002077401B5090040F150
:10132F0012122FFF12126A0212A2D208D206809551
:10133F0012122FFB12122FFA12122FF94A4B7006AC
:10134F00795E7A167BFF20022EE509602A7E008ED9
:10135F008275830012102D60060EEE650A70F0C2C2
:10136F00D5EBC0E0EAC0E0E9C0E0EE1215C7D0E06F
:10137F00F9D0E0FAD0E0FB121014FF60AAEBC0E046
:10138F00EAC0E0E9C0E012126AD0E02401F9D0E02F
:10139F003400FAD0E0FBE50A0460DCD50AD9808777
:1013AF00D20280A21215AA60F7E50A700104120D8D
:1013BF007CA90A600DE50A600914F50A121651EFAF
:1013CF0060F3EA30E702F404C3995077EAF4250A90
:1013DF000430E701E404F50A800D1215AA60C1EA92
:1013EF00050A250A120D7CEA789BF230E701E42505
:1013FF000A04D50A04200501141215C7E4C0E0122F
:10140F001651789BE2601320E70714F212125280F4
:10141F002204F2D0E014C0E07F00121252E50A60FD
:10142F0007121249150A800B300503121249D0E03A
:10143F000212A2D0E00480C51215AA60A0E50A042A
:10144F00120D7C789BEAF2E50A2005026001042464
:0C145F00041215C774FF04C0E0121651FF
:10146B00121252E50A2005026003121249D0E0B5B0
:10147B000AE87F4512125C789BE27F2B30E7047FF2
:10148B002DF404C0E012126AD0E075F00A84C0F0AB
:10149B00121253D0E01212530212A2791080027969
:1014AB0008C206C2088008D2D5790A8004790AC21C
:1014BB00D5E50A047002F50AE4FAFDFEFF12122FBD
:1014CB00FC7B0820011312122FFD7B1030000A1237
:1014DB00122FFE12122FFF7B20EC3382D592D550A8
:1014EB0013C3E43000069FFFE49EFEE42001039D3E
:1014FB00FDE49CFCE4CBF8C201EC700CCFCECDCC60
:10150B00E824F8F870F38017C3EF33FFEE33FEEDEA
:10151B0033FDEC33FCEB33FB994002FB0FD8E9EBCB
:10152B00300105F8D0E0C448B201C0E00AEC4D4EE2
:10153B004F78207B0070C2EAB50A0040BCC0E012B5
:10154B0015C9D0F0D0E0200104C4C0E0C4B201C082
:10155B00F0121253D0F0D5F0EB0212A212110813B5
:10156B003F5314A65813104C130C4214AA4F14B229
:10157B004414B24913254314B85513E9461447458F
:10158B0013B347167E5013142D13182E133B2B1326
:10159B001C2313392016672A12D44800001333E595
:1015AB000AB4FF03750A0612122FFC12122FFD123A
:1015BB00122FFE12122FFF7894020DAB790AA2D5CF
:1015CB00200314300509B910020404B9080104A260
:1015DB00D52006025001042002689202B509005082
:1015EB0034C0E07F203003197F30A20272067205EF
:1015FB00500F121620C202C206C205C2087F3080ED
:10160B000F300503E9C0E012126A300503D0E0F990
:10161B00D0E0B509CC3005177F30B9100C12126A27
:10162B007F583004077F788003B9080312126A30A1
:10163B0002057F2D02126A7F202008F87F2B2006DF
:10164B00F322920280CF7F00B4070050052494F858
:10165B00E2FF22286E756C6C2900D20112122F301A
:10166B0001F8C201780930D50108F60212D42D50C9
:10167B0043495812122F2403B405004001E490167D
:10168B00799312125B743A12125BD203750904023E
:02169B0014A693
:100D3200E9D2E7C933E833F892D5EDD2E7CD33EC07
:070D420033FC5002B2D52280
:100D4900EC30E7100FBF000C0EBE00080DBD00040B
:100D59000BEB6014A2D5EB13FCED92E7FD2274FFB7
:100D6900FCFDFEFF22E480F8A2D574FF13FC7D8010
:030D7900E480EF24
:100D7C00F920E72824F950037907E4F42402FB183E
:100D8C00DBFDE224FB5014E9600DE4F218E204F2FE
:0F0D9C00B40A08E4F2D9F57401F20A22C2D52292
:100DAB00ED33EC3392D5FA602AB4FF33EDC2E77B17
:100DBB00FF60067A0D79D0E4227A0D79D920D5041B
:100DCB007A0D79D4224E614E002B494E46002D49A7
:100DDB004E4600E47A08F208DAFC7B00740722E83E
:100DEB00C0E0ECC0E0EDC0E0EEC0E0EFC0E0EA75C3
:100DFB00F010A4CAABF075F04DA42BFBE435F0FC5E
:100E0B00EA2410FAEB34C5FBEC34D9FCEDC2E7FF56
:100E1B0075F056A4F42411C5F0F434C58FF0A42A50
:100E2B00E5F03BE43CF220E714120EDED0E0FFD0FD
:100E3B00E0FED0E0FDD0E0FC120BEA8014F40412CB
:100E4B000EDED0E0FFD0E0FED0E0FDD0E0FC120AD9
:100E5B00E1D0E0F8E2FAEDD2E7CD33EC332482FBBC
:100E6B00E4C3CF33CFCE33CECD33CD33DBF37B07E0
:100E7B0075F00A846004F2081B0AE5F0F2088FF0A3
:100E8B00740AA4FFACF08EF0740AA42CFEACF050E4
:100E9B00010C8DF0740AA42CFDE435F0F208DBDEB6
:030EAB00740722A7
:100EAE003F8000004120000042C80000447A00004C
:100EBE00461C400047C35000497424004B189680CE
:100ECE004CBEBC205A0E1BCA6753C21C749DC5AEC5
:100EDE00FB60065407601C2323120F0CEB54386082
:100EEE0009120EF8120F07120AE1ECF8EDF9EEFAFC
:100EFE00EFCB22EB120F0780F1543803241C900E17
:100F0E00AEFE93FC0EEE93FD0EEE930ECE93FF22ED
:101A7600021CABE493A3F8E493A34003F68001F2BF
:101A860008DFF48029E493A3F85407240CC8C33371
:101A9600C4540F4420C8834004F456800146F6DF40
:101AA600E4800B0102040810204080901C0BE47EA9
:101AB600019360BCA3FF543F30E509541FFEE49335
:101AC600A360010ECF54C025E060A840B8E493A3FC
:101AD600FAE493A3F8E493A3C8C582C8CAC583CA27
:101AE600F0A3C8C582C8CAC583CADFE9DEE780BEDF
:011C3A0000A9
:100F1E00E709F608DFFA8046E709F208DFFA803EB5
:100F2E0088828C83E709F0A3DFFA8032E309F608A2
:100F3E00DFFA8078E309F208DFFA807088828C830A
:100F4E00E309F0A3DFFA806489828A83E0A3F608BE
:100F5E00DFFA805889828A83E0A3F208DFFA804C98
:100F6E0080D280FA80C680D4806980F2803380106F
:100F7E0080A680EA809A80A880DA80E280CA8033D8
:100F8E0089828A83ECFAE493A3C8C582C8CCC58350
:100F9E00CCF0A3C8C582C8CCC583CCDFE9DEE78020
:100FAE000D89828A83E493A3F608DFF9ECFAA9F09F
:100FBE00EDFB2289828A83ECFAE0A3C8C582C8CCF5
:100FCE00C583CCF0A3C8C582C8CCC583CCDFEADE0E
:100FDE00E880DB89828A83E493A3F208DFF980CC70
:100FEE0088F0EF60010E4E60C388F0ED2402B40469
:100FFE000050B9F582EB2402B4040050AF23234510
:06100E008223900F6E73B7
:10101400BB010689828A83E0225002E722BBFE02DA
:09102400E32289828A83E493220D
:10102D00BB010CE58229F582E5833AF583E0225078
:10103D0006E92582F8E622BBFE06E92582F8E222C2
:0D104D00E58229F582E5833AF583E49322DC
:10105A00BB010689828A83F0225002F722BBFE0175
:02106A00F3226F
:10106C00EF8DF0A4A8F0CF8CF0A428CE8DF0A42E98
:02107C00FE2252
:0E107E00C3E49FFFE49EFEE49DFDE49CFC2283
:10108C00BB010789828A830212235005E9F80212F8
:0A109C0017BBFE05E9F80210CA2296
:1010A600BB010DE58229F582E5833AF58302122319
:1010B6005007E92582F8021217BBFE07E92582F8D8
:0410C6000210CA2228
:0C10CA00ECF208EDF208EEF208EFF22262
:1010D600D083D082E493F208740193F208740293E9
:0910E600F208740393F274047320
:1010EF00FAE2FB0808E2F925F0F218E2CA3AF22216
:0910FF00EBF208EAF208E9F22222
:10110800D083D082F8E4937012740193700DA3A376
:1011180093F8740193F5828883E47374029368608A
:06112800EFA3A3A380DF8A
:101C6A00EFB40A07740D121C75740A309811A899FA
:101C7A00B8130CC2983098FDA899C298B811F630DA
:071C8A0099FDC299F59922B2
:101AF6007885EBF208EAF208E9F2788BEBF208EA6D
:101B0600F208E9F27885E2FB0808E2F92401F21806
:101B1600E2FA3400F212101470EA7887E224FFF237
:101B260018E234FFF27888E2FB0808E2F92401F2B1
:101B360018E2FA3400F2121014FF7885E2FB080866
:101B4600E2F92401F218E2FA3400F2EF12105A70A8
:0C1B5600D4788BE2FB08E2FA08E2F922E6
:10112E00E709F60870FA8046E709F20870FA803E81
:10113E0088828C83E709F0A370FA807EE309F608B3
:10114E0070FA8076E309F20870FA806E88828C83DA
:10115E00E309F0A370FA806289828A83E0A3F6081D
:10116E0070FA805689828A83E0A3F20870FA804A68
:10117E0080D280FA80C680D4806580F28031801063
:10118E0080A680EA809A80A880DA80E280CA8031C8
:10119E0089828A83ECFAE493A3C8C582C8CCC5833E
:1011AE00CCF0A3C8C582C8CCC583CC70E9800D89AC
:1011BE00828A83E493A3F60870F9ECFAA9F0EDFBAA
:1011CE002289828A83ECFAE0A3C8C582C8CCC58383
:1011DE00CCF0A3C8C582C8CCC583CC70EA80DD89AB
:1011EE00828A83E493A3F20870F980CE88F0ED240E
:1011FE0002B4040050C4F582EB2402B4040050BAC9
:09120E00232345822390117E7315
:101CC200E4FFFE121014600C0FEF70010E09E970B0
:051CD200F20A80EF2280
:0C121700ECF608EDF608EEF608EFF62203
:0C122300ECF0A3EDF0A3EEF0A3EFF0223E
:00000001FF
